{
  "contractName": "DappTokenCappedCrowdsale",
  "abi": [
    {
      "constant": true,
      "inputs": [],
      "name": "rate",
      "outputs": [
        {
          "name": "",
          "type": "uint256"
        }
      ],
      "payable": false,
      "stateMutability": "view",
      "type": "function"
    },
    {
      "constant": true,
      "inputs": [],
      "name": "cap",
      "outputs": [
        {
          "name": "",
          "type": "uint256"
        }
      ],
      "payable": false,
      "stateMutability": "view",
      "type": "function"
    },
    {
      "constant": true,
      "inputs": [],
      "name": "weiRaised",
      "outputs": [
        {
          "name": "",
          "type": "uint256"
        }
      ],
      "payable": false,
      "stateMutability": "view",
      "type": "function"
    },
    {
      "constant": true,
      "inputs": [
        {
          "name": "",
          "type": "address"
        }
      ],
      "name": "contributions",
      "outputs": [
        {
          "name": "",
          "type": "uint256"
        }
      ],
      "payable": false,
      "stateMutability": "view",
      "type": "function"
    },
    {
      "constant": true,
      "inputs": [],
      "name": "capReached",
      "outputs": [
        {
          "name": "",
          "type": "bool"
        }
      ],
      "payable": false,
      "stateMutability": "view",
      "type": "function"
    },
    {
      "constant": true,
      "inputs": [],
      "name": "wallet",
      "outputs": [
        {
          "name": "",
          "type": "address"
        }
      ],
      "payable": false,
      "stateMutability": "view",
      "type": "function"
    },
    {
      "constant": true,
      "inputs": [],
      "name": "investorMaxCap",
      "outputs": [
        {
          "name": "",
          "type": "uint256"
        }
      ],
      "payable": false,
      "stateMutability": "view",
      "type": "function"
    },
    {
      "constant": true,
      "inputs": [],
      "name": "investorMinCap",
      "outputs": [
        {
          "name": "",
          "type": "uint256"
        }
      ],
      "payable": false,
      "stateMutability": "view",
      "type": "function"
    },
    {
      "constant": false,
      "inputs": [
        {
          "name": "_beneficiary",
          "type": "address"
        }
      ],
      "name": "buyTokens",
      "outputs": [],
      "payable": true,
      "stateMutability": "payable",
      "type": "function"
    },
    {
      "constant": true,
      "inputs": [],
      "name": "token",
      "outputs": [
        {
          "name": "",
          "type": "address"
        }
      ],
      "payable": false,
      "stateMutability": "view",
      "type": "function"
    },
    {
      "inputs": [
        {
          "name": "_rate",
          "type": "uint256"
        },
        {
          "name": "_wallet",
          "type": "address"
        },
        {
          "name": "_token",
          "type": "address"
        },
        {
          "name": "_cap",
          "type": "uint256"
        }
      ],
      "payable": false,
      "stateMutability": "nonpayable",
      "type": "constructor"
    },
    {
      "payable": true,
      "stateMutability": "payable",
      "type": "fallback"
    },
    {
      "anonymous": false,
      "inputs": [
        {
          "indexed": false,
          "name": "bene",
          "type": "address"
        },
        {
          "indexed": false,
          "name": "contribe",
          "type": "uint256"
        }
      ],
      "name": "ContributionDone",
      "type": "event"
    },
    {
      "anonymous": false,
      "inputs": [
        {
          "indexed": true,
          "name": "purchaser",
          "type": "address"
        },
        {
          "indexed": true,
          "name": "beneficiary",
          "type": "address"
        },
        {
          "indexed": false,
          "name": "value",
          "type": "uint256"
        },
        {
          "indexed": false,
          "name": "amount",
          "type": "uint256"
        }
      ],
      "name": "TokenPurchase",
      "type": "event"
    },
    {
      "constant": true,
      "inputs": [
        {
          "name": "_beneficiaryy",
          "type": "address"
        }
      ],
      "name": "getUserContribution",
      "outputs": [
        {
          "name": "",
          "type": "uint256"
        }
      ],
      "payable": false,
      "stateMutability": "view",
      "type": "function"
    }
  ],
  "bytecode": "0x60806040526658d15e17628000600555674563918244f4000060065534801561002757600080fd5b50604051608080610b21833981018060405281019080805190602001909291908051906020019092919080519060200190929190805190602001909291905050508084848460008311151561007b57600080fd5b600073ffffffffffffffffffffffffffffffffffffffff168273ffffffffffffffffffffffffffffffffffffffff16141515156100b757600080fd5b600073ffffffffffffffffffffffffffffffffffffffff168173ffffffffffffffffffffffffffffffffffffffff16141515156100f357600080fd5b8260028190555081600160006101000a81548173ffffffffffffffffffffffffffffffffffffffff021916908373ffffffffffffffffffffffffffffffffffffffff160217905550806000806101000a81548173ffffffffffffffffffffffffffffffffffffffff021916908373ffffffffffffffffffffffffffffffffffffffff16021790555050505060008111151561018d57600080fd5b806004819055505050505050610979806101a86000396000f3006080604052600436106100af576000357c0100000000000000000000000000000000000000000000000000000000900463ffffffff1680632c4e722e146100ba578063355274ea146100e55780634042b66f1461011057806342e94c901461013b5780634f93594514610192578063521eb273146101c15780639250c36714610218578063b25d7f5414610243578063bb8b2b471461026e578063ec8ac4d8146102c5578063fc0c546a146102fb575b6100b833610352565b005b3480156100c657600080fd5b506100cf610420565b6040518082815260200191505060405180910390f35b3480156100f157600080fd5b506100fa610426565b6040518082815260200191505060405180910390f35b34801561011c57600080fd5b5061012561042c565b6040518082815260200191505060405180910390f35b34801561014757600080fd5b5061017c600480360381019080803573ffffffffffffffffffffffffffffffffffffffff169060200190929190505050610432565b6040518082815260200191505060405180910390f35b34801561019e57600080fd5b506101a761044a565b604051808215151515815260200191505060405180910390f35b3480156101cd57600080fd5b506101d6610459565b604051808273ffffffffffffffffffffffffffffffffffffffff1673ffffffffffffffffffffffffffffffffffffffff16815260200191505060405180910390f35b34801561022457600080fd5b5061022d61047f565b6040518082815260200191505060405180910390f35b34801561024f57600080fd5b50610258610485565b6040518082815260200191505060405180910390f35b34801561027a57600080fd5b506102af600480360381019080803573ffffffffffffffffffffffffffffffffffffffff16906020019092919050505061048b565b6040518082815260200191505060405180910390f35b6102f9600480360381019080803573ffffffffffffffffffffffffffffffffffffffff169060200190929190505050610352565b005b34801561030757600080fd5b506103106104d4565b604051808273ffffffffffffffffffffffffffffffffffffffff1673ffffffffffffffffffffffffffffffffffffffff16815260200191505060405180910390f35b60008034915061036283836104f9565b61036b826106c9565b9050610382826003546106e790919063ffffffff16565b6003819055506103928382610703565b8273ffffffffffffffffffffffffffffffffffffffff163373ffffffffffffffffffffffffffffffffffffffff167f623b3804fa71d67900d064613da8f94b9617215ee90799290593e1745087ad188484604051808381526020018281526020019250505060405180910390a36104098383610711565b610411610715565b61041b8383610780565b505050565b60025481565b60045481565b60035481565b60076020528060005260406000206000915090505481565b60006004546003541015905090565b600160009054906101000a900473ffffffffffffffffffffffffffffffffffffffff1681565b60065481565b60055481565b6000600760008373ffffffffffffffffffffffffffffffffffffffff1673ffffffffffffffffffffffffffffffffffffffff168152602001908152602001600020549050919050565b6000809054906101000a900473ffffffffffffffffffffffffffffffffffffffff1681565b6000806105068484610784565b600760008573ffffffffffffffffffffffffffffffffffffffff1673ffffffffffffffffffffffffffffffffffffffff1681526020019081526020016000205491508282019050600554811015801561056157506006548111155b15156105d5576040517f08c379a00000000000000000000000000000000000000000000000000000000081526004018080602001828103825260198152602001807f4e6f742056616c696420416d6f756e74206f662045746865720000000000000081525060200191505060405180910390fd5b80600760008673ffffffffffffffffffffffffffffffffffffffff1673ffffffffffffffffffffffffffffffffffffffff168152602001908152602001600020819055507fc34888f30ba19527f820ebc056a01a1b985cb1a28c7b7ed16fea60e6319aa14484600760008773ffffffffffffffffffffffffffffffffffffffff1673ffffffffffffffffffffffffffffffffffffffff16815260200190815260200160002054604051808373ffffffffffffffffffffffffffffffffffffffff1673ffffffffffffffffffffffffffffffffffffffff1681526020018281526020019250505060405180910390a150505050565b60006106e0600254836107b790919063ffffffff16565b9050919050565b600081830190508281101515156106fa57fe5b80905092915050565b61070d82826107ef565b5050565b5050565b600160009054906101000a900473ffffffffffffffffffffffffffffffffffffffff1673ffffffffffffffffffffffffffffffffffffffff166108fc349081150290604051600060405180830381858888f1935050505015801561077d573d6000803e3d6000fd5b50565b5050565b61078e82826108fd565b6004546107a6826003546106e790919063ffffffff16565b111515156107b357600080fd5b5050565b6000808314156107ca57600090506107e9565b81830290508183828115156107db57fe5b041415156107e557fe5b8090505b92915050565b6000809054906101000a900473ffffffffffffffffffffffffffffffffffffffff1673ffffffffffffffffffffffffffffffffffffffff166340c10f1983836040518363ffffffff167c0100000000000000000000000000000000000000000000000000000000028152600401808373ffffffffffffffffffffffffffffffffffffffff1673ffffffffffffffffffffffffffffffffffffffff16815260200182815260200192505050602060405180830381600087803b1580156108b357600080fd5b505af11580156108c7573d6000803e3d6000fd5b505050506040513d60208110156108dd57600080fd5b810190808051906020019092919050505015156108f957600080fd5b5050565b600073ffffffffffffffffffffffffffffffffffffffff168273ffffffffffffffffffffffffffffffffffffffff161415151561093957600080fd5b6000811415151561094957600080fd5b50505600a165627a7a72305820c1117dfbd03d7b1e91d86e25a49e4ef2788c43881447c431e404cf5aff55df280029",
  "source": "pragma solidity 0.4.24;\n\nimport \"openzeppelin-solidity/contracts/crowdsale/Crowdsale.sol\";\nimport \"openzeppelin-solidity/contracts/crowdsale/emission/MintedCrowdsale.sol\";\nimport \"openzeppelin-solidity/contracts/crowdsale/validation/CappedCrowdsale.sol\";\n\ncontract DappTokenCappedCrowdsale is Crowdsale, MintedCrowdsale, CappedCrowdsale {\n\nuint256 public investorMinCap= 0.025 ether;\nuint256 public investorMaxCap= 5 ether;\nmapping(address=> uint256) public contributions;\nevent ContributionDone(address bene, uint256 contribe);\n\n  constructor(\n    uint256 _rate,\n    address _wallet,\n    ERC20 _token,\n    uint256 _cap\n  )\n    Crowdsale(_rate, _wallet, _token)\n    CappedCrowdsale(_cap)\n    public\n  {\n\n  }\n\n  function getUserContribution(address _beneficiaryy) public view returns (uint256){\n     return contributions[_beneficiaryy];\n  }\n\n\n  function _preValidatePurchase(\n    address _beneficiary,\n    uint256 _weiAmount\n  )\n    internal\n  {\n    super._preValidatePurchase(_beneficiary, _weiAmount);\n    uint256 oldContributions= contributions[_beneficiary];\n    uint256 newContributions = oldContributions + (_weiAmount);\n    require(newContributions >= investorMinCap && newContributions <= investorMaxCap,\"Not Valid Amount of Ether\");\n    contributions[_beneficiary]= newContributions;\n    emit ContributionDone(_beneficiary, contributions[_beneficiary]);\n  }\n}",
  "sourcePath": "/Users/faizanabid/ICOs/CappedCrowdsale/contracts/DappTokenCappedCrowdsale.sol",
  "compiler": {
    "name": "solc",
    "version": "0.4.24+commit.e67f0147.Emscripten.clang"
  },
  "schemaVersion": "3.4.6",
  "updatedAt": "2022-06-03T07:51:29.288Z",
  "networkType": "ethereum",
  "devdoc": {
    "methods": {
      "buyTokens(address)": {
        "details": "low level token purchase ***DO NOT OVERRIDE***",
        "params": {
          "_beneficiary": "Address performing the token purchase"
        }
      },
      "capReached()": {
        "details": "Checks whether the cap has been reached.",
        "return": "Whether the cap was reached"
      }
    }
  },
  "userdoc": {
    "methods": {}
  }
}